:020000040000FA
:100000000C9462000C948A000C948A000C948A0070
:100010000C948A000C948A000C948A000C948A0038
:100020000C948A000C948A000C948A000C948A0028
:100030000C948A000C948A000C948A000C948A0018
:100040000C946E030C948A000C948A000C948A0021
:100050000C948A000C948A000C948A000C948A00F8
:100060000C948A000C948A000000000024002700F1
:100070002A0000000000250028002B0000000000DE
:1000800023002600290004040404040404040202DA
:100090000202020203030303030301020408102007
:1000A0004080010204081020010204081020000012
:1000B0000008000201000003040700000000000027
:1000C0000000580511241FBECFEFD8E0DEBFCDBF22
:1000D00011E0A0E0B1E0EAEAFBE002C005900D9279
:1000E000AE32B107D9F721E0AEE2B1E001C01D9216
:1000F000AE3BB207E1F710E0C2E6D0E004C02197C2
:10010000FE010E94CD05C136D107C9F70E94B80390
:100110000C94D3050C94000096E0899FD001112423
:10012000A95CBE4F90967C936E935F9791E09196F9
:100130009C939197E091A401F091A5019091A30166
:10014000992339F0309751F0811108C08091530103
:100150000994309719F05C968C91FACF0895CF925C
:10016000DF92EF92FF920F931F9396E0899FF00129
:100170001124E95CFE4F11A2278D30A121303105F9
:1001800051F178F02230310509F451C023303105A6
:1001900009F452C01F910F91FF90EF90DF90CF9024
:1001A00008956623B9F361E070E00E948C002FB7D8
:1001B000F8948091330190913401A0913501B09170
:1001C00036012FBF80938F0190939001A0939101EE
:1001D000B0939201DFCF9FB7F894C0903301D090D5
:1001E0003401E0903501F09036019FBF00918F01FE
:1001F000109190012091910130919201C01AD10A81
:10020000E20AF30A0091A1011091A20130E020E07E
:100210000C151D052E053F0550F462E070E01F919E
:100220000F91FF90EF90DF90CF900C948C006111B4
:10023000B1CF63E070E0F3CF70E060E0F0CFAF9259
:10024000BF92CF92DF92EF92FF920F931F93CF93C3
:10025000DF936C017B018B01040F151FEB015E0125
:10026000AE18BF08C017D10759F06991D601ED91BA
:10027000FC910190F081E02DC6010995892B79F759
:10028000C501DF91CF911F910F91FF90EF90DF900B
:10029000CF90BF90AF900895833081F028F48130E3
:1002A00099F08230A9F008958730A9F08830C9F01C
:1002B0008430B1F4809180008F7D03C080918000F4
:1002C0008F7780938000089584B58F7784BD0895DB
:1002D00084B58F7DFBCF8091B0008F778093B00085
:1002E00008958091B0008F7DF9CFCF93DF93282FB1
:1002F00030E0F901E255FF4F8491F901E656FF4FD6
:10030000D491F901EA57FF4FC491CC23A1F0811198
:100310000E944C01EC2FF0E0EE0FFF1FE458FF4F5E
:10032000A591B491EC91ED2381E090E009F480E097
:10033000DF91CF91089580E090E0FACF862F0C9462
:1003400075011F93CF93DF93282F30E0F901E25519
:10035000FF4F8491F901E656FF4FD491F901EA5716
:10036000FF4FC491CC23A9F0162F81110E944C019C
:10037000EC2FF0E0EE0FFF1FEE58FF4FA591B49168
:100380008FB7F894EC91111108C0D095DE23DC935F
:100390008FBFDF91CF911F910895DE2BF8CF862F6D
:1003A000642F0C94A101CF93DF9390E0FC01E656FB
:1003B000FF4F24918A579F4FFC0184918823C9F0F5
:1003C00090E0880F991FFC01E859FF4FA591B49167
:1003D000FC01EE58FF4FC591D49161110DC09FB73C
:1003E000F8948C91209582238C93888128232883EC
:1003F0009FBFDF91CF910895623051F49FB7F89479
:100400003C91822F809583238C93E8812E2BEFCF14
:100410008FB7F894EC912E2B2C938FBFEACF862FB9
:10042000642F0C94D301089590E080E00895CF9359
:10043000DF93EC0160E08E810E94A10161E08E817A
:100440000E94A10160E08E810E94A1018BE891E0F1
:100450000197F1F7DF91CF910895CF92DF92EF925C
:10046000FF920F931F93CF93DF936C017C0187E082
:10047000E80EF11CD0E0C0E0062F10E0B8010C2E11
:1004800002C0759567950A94E2F76170F701819152
:100490007F010E94A1012196C430D10579F7C601E0
:1004A000DF91CF911F910F91FF90EF90DF90CF9050
:1004B0000C941702CF92DF92EF92FF920F931F934B
:1004C000CF93DF93EC01F62E642F8C810E94A10163
:1004D0008D818F3F19F060E00E94A1010F2D10E087
:1004E0008F8584FF25C06E0187E0C80ED11CF12CDA
:1004F000E12CB8010E2C02C0759567950A94E2F7BD
:100500006170F60181916F010E94A101FFEFEF1A66
:10051000FF0A88E0E816F10461F7CE01DF91CF9180
:100520001F910F91FF90EF90DF90CF900C941702E6
:10053000B80184E0759567958A95E1F7CE010E9430
:100540002D026F2DCE01DF91CF911F910F91FF9062
:10055000EF90DF90CF900C942D02CF93DF938230F9
:1005600029F49091B50198609093B5018093B901F9
:100570001092BA0180E48093BB0180E18093BC01BA
:1005800080E58093BD0161E08091AA010E94D301C2
:100590008091AB018F3F19F061E00E94D30161E0CF
:1005A0008091AC010E94D301C6EAD1E09E01265A97
:1005B00031408091B50184FD0BC084E090E021962C
:1005C0002817390744F461E08E810E94D301EECFF1
:1005D00088E090E0F4CF8BE39DE00197F1F760E0D5
:1005E0008091AA010E94A10160E08091AC010E946B
:1005F000A1018091AB018F3F19F060E00E94A10141
:100600006091B50164FD45C063E086EA91E00E9417
:100610002D02CBE4D6E4CE010197F1F763E086EA40
:1006200091E00E942D022197F1F763E086EA91E0C4
:100630000E942D0283E592E00197F1F762E086EADD
:1006400091E00E942D026091B501606240E086EA6F
:1006500091E00E945A0284E08093B60140E06CE091
:1006600086EA91E00E945A0240E061E086EA91E069
:100670000E945A028BE39FE10197F1F782E0809399
:10068000B70140E066E086EA91E0DF91CF910C94FB
:100690005A02606240E086EA91E00E945A028BE4CE
:1006A00096E40197F1F76091B501606240E086EA57
:1006B00091E00E945A0283E592E00197F1F7609180
:1006C000B501606240E086EA91E00E945A02BBCF29
:1006D00041E00E945A0281E090E008951F920F923B
:1006E0000FB60F9211242F933F938F939F93AF9345
:1006F000BF938091330190913401A0913501B09165
:1007000036013091320123E0230F2D3758F5019641
:10071000A11DB11D209332018093330190933401C8
:10072000A0933501B093360180912E0190912F0155
:10073000A0913001B09131010196A11DB11D8093AE
:100740002E0190932F01A0933001B0933101BF91FE
:10075000AF919F918F913F912F910F900FBE0F906E
:100760001F90189526E8230F0296A11DB11DD2CF28
:10077000789484B5826084BD84B5816084BD85B57C
:10078000826085BD85B5816085BD80916E00816088
:1007900080936E001092810080918100826080932E
:1007A0008100809181008160809381008091800030
:1007B0008160809380008091B10084608093B1005B
:1007C0008091B00081608093B00080917A00846055
:1007D00080937A0080917A00826080937A00809181
:1007E0007A00816080937A0080917A00806880939B
:1007F0007A001092C10082E00E94AD02412C512C7F
:100800003201439422242A94322C50E0C52E50E029
:10081000D52E51E05093A3018FB7F8944091330146
:100820005091340160913501709136018FBF8091F4
:10083000930190919401A0919501B0919601481B6C
:10084000590B6A0B7B0B80919F019091A001B0E046
:10085000A0E084179507A607B70708F012C1C0E00B
:1008600080919D01C81760F4E0919901F0919A017F
:10087000EC0FF11D62E080810E94D301CF5FF0CFC9
:10088000912C80919E01981608F05FC0092D10E010
:10089000E0919B01F0919C01E00FF11F61E08081EC
:1008A0000E94D301E0919B01F0919C01E00FF11FA8
:1008B00060E080810E94A101D301C201092C04C023
:1008C000880F991FAA1FBB1F0A94D2F75C017C01F5
:1008D000E094F094812C80919D018816F8F4C82D45
:1008E000D0E0E0919901F0919A01EC0FFD1F808119
:1008F0000E9475012496CC0FDD1FC95CDE4F892B49
:1009000041F4888199818A299B29998388838394DA
:10091000E2CF888199818E219F21F7CFE0919B01C1
:10092000F0919C01E00FF11F61E080810E94A10124
:1009300080919B0190919C01080F191F60E0F801C4
:1009400080810E94D30193949CCFC7E3D1E0FE0144
:10095000878D90A1892B21F4148E368E258E11A2BD
:10096000369651E0E337F50799F710E080919D0145
:10097000181708F053C000E0E12EF12CEE0CFF1C1C
:10098000C701815C9E4F7C0120919E01021708F0F7
:1009900043C0F70160817181002E02C07695679592
:1009A0000A94E2F7129F90011124200F311DE7E312
:1009B000F1E080E0458D568D2417350709F476C0A7
:1009C0008F5F36968A30B1F760FF24C0E7E3F1E02D
:1009D00090E080E0448D411118C0E0919701F091C2
:1009E0009801E20FF31F408156E0589FF001599F94
:1009F000F00D1124E95CFE4F448F368F258F10A235
:100A0000178E61E00E94AF0005C0019636968A30CD
:100A1000910501F70F5FB8CF1F5FA8CF80E099A1C4
:100A20009111892F269691E0C337D907C1F79FB757
:100A3000F8944091330150913401609135017091E7
:100A400036019FBF409393015093940160939501A9
:100A5000709396018823A9F080915801882389F02A
:100A60008091560190915701019759F4609153017B
:100A700061110AC0C114D10409F4CBCE0E94000058
:100A8000C8CE1092A301F6CF41E086EA91E00E9421
:100A90005A026091B601862F84608093B6016C6023
:100AA00040E086EA91E00E945A02E4CF6170AACF4A
:100AB0001092A9011092A80186E291E09093A701FB
:100AC0008093A6018DE08093AA018FEF8093AB0104
:100AD0008CE08093AC018BE08093AD018AE0809341
:100AE000AE0181E08093AF011092B0011092B1018C
:100AF0001092B2011092B3011092B4011092B5019C
:100B00000E94AD021092390110923D0110923C01F9
:100B100010923E018CE191E090933801809337016F
:100B2000E3E5F1E01082148213821582369681E0AB
:100B3000EF38F807B9F784E091E090939A01809339
:100B4000990180E091E090939C0180939B0184E067
:100B500080939D0180939E0188E091E0909398019D
:100B6000809397018AE090E09093A00180939F0189
:100B700084EF91E09093A2018093A1011092A501CE
:100B80001092A40110929301109294011092950179
:100B9000109296011092A3010895EE0FFF1F059089
:100BA000F491E02D0994F894FFCF06070809020399
:100BB00004053738392F3435362A3132332D633036
:100BC0003D2B000000000F02CF019E01000000003D
:080BD00068031F011402130267
:107E0000112484B714BE81FFF0D085E080938100F7
:107E100082E08093C00088E18093C10086E0809377
:107E2000C20080E18093C4008EE0C9D0259A86E02C
:107E300020E33CEF91E0309385002093840096BBD3
:107E4000B09BFECF1D9AA8958150A9F7CC24DD24C4
:107E500088248394B5E0AB2EA1E19A2EF3E0BF2EE7
:107E6000A2D0813461F49FD0082FAFD0023811F036
:107E7000013811F484E001C083E08DD089C08234E0
:107E800011F484E103C0853419F485E0A6D080C0E4
:107E9000853579F488D0E82EFF2485D0082F10E0AE
:107EA000102F00270E291F29000F111F8ED06801E7
:107EB0006FC0863521F484E090D080E0DECF843638
:107EC00009F040C070D06FD0082F6DD080E0C81688
:107ED00080E7D80618F4F601B7BEE895C0E0D1E017
:107EE00062D089930C17E1F7F0E0CF16F0E7DF06D8
:107EF00018F0F601B7BEE89568D007B600FCFDCFD4
:107F0000A601A0E0B1E02C9130E011968C91119780
:107F100090E0982F8827822B932B1296FA010C0160
:107F200087BEE89511244E5F5F4FF1E0A038BF0790
:107F300051F7F601A7BEE89507B600FCFDCF97BE46
:107F4000E89526C08437B1F42ED02DD0F82E2BD052
:107F50003CD0F601EF2C8F010F5F1F4F84911BD097
:107F6000EA94F801C1F70894C11CD11CFA94CF0C13
:107F7000D11C0EC0853739F428D08EE10CD085E9AC
:107F80000AD08FE07ACF813511F488E018D01DD067
:107F900080E101D065CF982F8091C00085FFFCCF94
:107FA0009093C60008958091C00087FFFCCF809118
:107FB000C00084FD01C0A8958091C6000895E0E648
:107FC000F0E098E1908380830895EDDF803219F02E
:107FD00088E0F5DFFFCF84E1DECF1F93182FE3DFCA
:107FE0001150E9F7F2DF1F91089580E0E8DFEE27F6
:047FF000FF270994CA
:027FFE00040479
:00000001FF
